:1000000002C100000C944C090C9421090C94F608D0
:100010000C94CB080C94A0080C9475080C944A0816
:100020000C941F0821C100001FC100001DC1000069
:100030001BC1000019C1000017C1000015C100005C
:1000400013C1000011C100000FC100000DC100006C
:100050000BC1000009C1000007C10000A6C70000D5
:1000600003C100006CC7000041C70000FDC00000D4
:10007000FBC00000F9C00000F7C00000F5C00000A0
:10008000F3C00000F1C00000EFC00000EDC00000B0
:10009000EBC00000E9C00000E7C00000E5C00000C0
:1000A000E3C00000E1C00000DFC00000DDC00000D0
:1000B000DBC00000D9C00000D7C00000D5C00000E0
:1000C000D3C00000D1C00000CFC00000D9C60000DE
:1000D000AEC60000C9C00000C7C00000C5C0000017
:1000E000C3C0000000002100240027002A002D00CA
:1000F0003000330001010000040107010A01000083
:100100002200250028002B002E00310034000201BF
:100110000000050108010B0100002000230026005B
:1001200029002C002F00320000010000030106010D
:10013000090105050505070508080808020202026D
:100140000A0A080804040404010101010101010173
:100150000303030303030303040707070C0C0C0C3E
:100160000C0C0C0C02020202060606060606060627
:100170000B0B0B0B0B0B0B0B0102102020080810B4
:100180002040102040800201020108040201010207
:1001900004081020408080402010080402018004E0
:1001A000020180402010080402010804020101023B
:1001B0000408102040800102040810204080000044
:1001C0000A0B02090C0D0E080703040100000000D1
:1001D000000000000000000000000000000000001F
:1001E00000000000000000000000121110000000DC
:1001F00000000000000000000000000000000000FF
:1002000000000000770911241FBECFEFD1E2DEBF4E
:10021000CDBF00E00CBF23E0A6E7B2E001C01D9215
:10022000AF3DB207E1F712E0A0E0B2E0ECE8FDE19B
:1002300000E00BBF02C007900D92A637B107D9F7B7
:1002400011E0C3E0D1E000E006C021970109802F52
:10025000FE010E94BC0EC230D10780E00807A9F75A
:100260000E94D4090C94C40ECBCEFC01A089B189A4
:1002700082E08C93A485B5851C92A685B78580E124
:100280008C93108EA489B58986E08C93A289B3895A
:100290008C9180618C93A289B3898C9188608C93B6
:1002A000A289B3898C9180688C930288F389E02DB0
:1002B00080818F7D80830895AF92BF92CF92DF922D
:1002C000EF92FF920F931F93CF93DF936C017B010B
:1002D0008B01040F151FEB015E01AE18BF08C0179C
:1002E000D10759F06991D601ED91FC910190F0810F
:1002F000E02DC6011995892B79F7C501DF91CF91C2
:100300001F910F91FF90EF90DF90CF90BF90AF9033
:100310000895FC01538D448D252F30E0842F90E00B
:10032000821B930B541710F0CF96089501970895F0
:10033000FC01918D828D981761F0A28DAE0FBF2FB9
:10034000B11D5D968C91928D9F5F9F73928F90E00F
:1003500008958FEF9FEF0895FC01918D828D98177E
:1003600031F0828DE80FF11D858D90E008958FEFBB
:100370009FEF08952FB7F894809193029091940283
:10038000A0919502B09196022FBF80939F02909307
:10039000A002A093A102B093A20287E992E0DCDF61
:1003A00097FF26C02FB7F894809193029091940202
:1003B000A0919502B09196022FBF40919F0250915B
:1003C000A0026091A1027091A202841B950BA60B62
:1003D000B70B40919B0250919C0260919D027091DD
:1003E0009E0284179507A607B707B8F28FEF9FEF15
:1003F0000895FC01918D228D892F90E0805C9F4FA4
:10040000821B91098F739927089587E992E0F1DFA4
:1004100021E0892B09F420E0822F089584E393E002
:10042000E8DF21E0892B09F420E0822F0895FC0108
:10043000A48DA80FB92FB11DA35ABF4F2C91848D45
:1004400090E001968F739927848FA689B7892C93A2
:10045000A089B1898C91837080648C93938D848DF5
:10046000981306C00288F389E02D80818F7D8083F8
:100470000895EF92FF920F931F93CF93DF93EC01B8
:1004800081E0888F9B8D8C8D98131AC0E889F9893B
:10049000808185FF15C09FB7F894EE89FF8960833E
:1004A000E889F98980818370806480839FBF81E0BF
:1004B00090E0DF91CF911F910F91FF90EF90089501
:1004C000F62E0B8D10E00F5F1F4F0F731127E02EDC
:1004D0008C8D8E110BC00FB607FCFACFE889F98915
:1004E000808185FFF5CFCE01A2DFF2CFEB8DEC0F3F
:1004F000FD2FF11DE35AFF4FF0829FB7F8940B8F49
:10050000EA89FB8980818062D0CFCF93DF93EC01B1
:10051000888D8823B1F0AA89BB89E889F9898C91F3
:1005200085FD03C0808186FD0CC00FB607FCF7CFA8
:100530008C9185FFF2CF808185FFEDCFCE0177DFF3
:10054000EACFDF91CF91089580E090E0892B21F0F0
:1005500065DF81110E94000080E090E0892B49F066
:1005600080E090E0892B29F00E94000081110E9418
:10057000000080E090E0892B21F047DF81110E948C
:10058000000080E090E0892B49F080E090E0892B2A
:1005900029F00E94000081110C9400000895815000
:1005A000823108F05AC0E82FF0E08827E552FD4F6D
:1005B0008F4F0C94BC0EFB02FF02ED02F302F70218
:1005C0002D03020308030C03120316031A0320036E
:1005D00024032D0328032E033203809180008F779C
:1005E000809380000895809180008F7DF9CF809165
:1005F0008000877FF5CF84B58F7784BD089584B55B
:100600008F7DFBCF8091B0008F778093B0000895ED
:100610008091B0008F7DF9CF809190008F7780938B
:1006200090000895809190008F7DF9CF8091900087
:10063000877FF5CF8091A0008F778093A0000895E9
:100640008091A0008F7DF9CF8091A000877FF5CFAA
:10065000809120018F77809320010895809120015F
:100660008F7DF9CF80912001877FF5CFCF93DF93E6
:10067000282F30E0F901E254FE4F8491F901E85847
:10068000FE4FD491F901EE5CFE4FC491CC2399F05A
:10069000811185DFEC2FF0E0EE0FFF1FE85EFE4FCB
:1006A000A591B491EC91ED2381E090E009F480E014
:1006B000DF91CF91089580E090E0FACF1F93CF9320
:1006C000DF93282F30E0F901E254FE4F8491F901C5
:1006D000E858FE4FD491F901EE5CFE4FC491CC2353
:1006E000A1F0162F81115BDFEC2FF0E0EE0FFF1F62
:1006F000E250FF4FA591B4918FB7F894EC9111118E
:1007000008C0D095DE23DC938FBFDF91CF911F917E
:100710000895DE2BF8CFCF93DF9390E0FC01E858EB
:10072000FE4F24918E5C9E4FFC0184918823D1F072
:1007300090E0880F991FFC01EC51FF4FA591B491F7
:10074000FC01E250FF4FC591D49161110EC09FB7DB
:10075000F8948C91E22FE0958E238C932881E223EC
:10076000E8839FBFDF91CF9108958FB7F894EC9104
:10077000E22BEC938FBFF6CF90917B00977F909305
:100780007B008653806480937C0080917A00806433
:1007900080937A0080917A0086FDFCCF809178006A
:1007A0009091790008953FB7F89480917F029091DD
:1007B0008002A0918102B091820226B5A89B05C05B
:1007C0002F3F19F00196A11DB11D3FBFBA2FA92FD0
:1007D000982F8827BC01CD01620F711D811D911DCD
:1007E00042E0660F771F881F991F4A95D1F7089539
:1007F0008F929F92AF92BF92CF92DF92EF92FF9231
:100800004B015C01D0DF6B017C01CDDF6C197D09F0
:100810008E099F09683E734081059105B0F321E080
:10082000821A9108A108B10888EEC80E83E0D81E8C
:10083000E11CF11C81149104A104B10431F7FF9073
:10084000EF90DF90CF90BF90AF909F908F900895E2
:100850000895CF93C82F60E05EDF8C2FCF9106CF35
:10086000CF92DF92EF92FF9282E0F3DF6C01990F5B
:10087000EE08FF08C0927602D0927702E0927802EA
:10088000F09279028091870290918802A09189026A
:10089000B0918A02C816D906EA06FB06F9F084E090
:1008A000D8DF40918F025091900260919102709137
:1008B0009202092E000CAA0BBB0BC816D906EA0639
:1008C000FB06C9F04F5F5F4F6F4F7F4F40938F0222
:1008D000509390026093910270939202C0928702AB
:1008E000D0928802E0928902F0928A02FF90EF9003
:1008F000DF90CF9008954150510961097109E6CF09
:10090000CF92DF92EF92FF9283E0A3DF6C01990F09
:10091000EE08FF08C0927A02D0927B02E0927C023D
:10092000F0927D028091830290918402A0918502D1
:10093000B0918602C816D906EA06FB06F9F085E0F2
:1009400088DF40918B0250918C0260918D027091F2
:100950008E02092E000CAA0BBB0BC816D906EA069C
:10096000FB06C9F0415051096109710940938B029E
:1009700050938C0260938D0270938E02C09283021A
:10098000D0928402E0928502F0928602FF90EF906E
:10099000DF90CF9008954F5F5F4F6F4F7F4FE6CF4F
:1009A000CF93DF93C82FD62F61E0B5DE6D2F8C2F4C
:1009B000DF91CF9183CECF93C82F61E0ACDE61E0B1
:1009C0008C2FA9DE61E08C2FCF9178CEEF92FF9231
:1009D0001F93CF93DF9361E08091D7036FDE6AEFBF
:1009E00070E080E090E004DF2FB7F89480919302EC
:1009F00090919402A0919502B09196022FBF4091E0
:100A0000DA035091DB036091DC037091DD038417FE
:100A10009507A607B70740F41092DA031092DB039C
:100A20001092DC031092DD032091DE03211118C027
:100A30004091DA035091DB036091DC037091DD0398
:100A4000841B950BA60BB70B803D9740A105B10504
:100A500038F481E0DF91CF911F91FF90EF900895DE
:100A60001092DE032FB7F894809193029091940234
:100A7000A0919502B09196022FBF8093DA039093D4
:100A8000DB03A093DC03B093DD031092D503109237
:100A9000D4031092D3031092D2031092D10361E0D9
:100AA0008091D70338DE60E08091D70307DE64E1F0
:100AB00070E080E090E09CDEF89461E08091D703E4
:100AC000FDDD8BE990E00197F1F760E08091D703BD
:100AD00022DE10E081E0C0E0D0E0E82EF12C809131
:100AE000D703C4DD8E159F0519F4DF5FDF3FB9F72B
:100AF0008091D703BBDDDF3FC1F0C43098F0C0FD6B
:100B000011C0E12FE695E695E695F0E0EF52FC4F37
:100B10009081990F90832091D9032D1710F4916043
:100B200090831F5FCF5FC535B9F678941832B8F05F
:100B30004091D5032091D1038091D203280F332710
:100B4000331F8091D303280F311D8091D403820F6E
:100B5000932F911D99274817190609F47ACF80E041
:100B600079CFFB0101900020E9F73197AF01461BD7
:100B7000570BA2CB8F929F92AF92BF920F931F936E
:100B8000CF93DF93CDB7DEB7A1970FB6F894DEBF52
:100B90000FBECDBF19A2423008F44AE08E010F5DAE
:100BA0001F4F842E912CB12CA12CA50194010E94E1
:100BB0009A0EE62FB901CA01EA30FCF4E05DD801D3
:100BC000EE938D01232B242B252B79F790E080E0E9
:100BD000109721F0BD0187E992E0C3DFA1960FB61F
:100BE000F894DEBF0FBECDBFDF91CF911F910F9163
:100BF000BF90AF909F908F900895E95CE0CFCF9227
:100C0000DF92EF92FF92CF93DF936B017C016DE255
:100C100087E992E02EDCEC0166277727CB016C197F
:100C20007D098E099F094AE0A5DF8C0F9D1FDF918A
:100C3000CF91FF90EF90DF90CF900895BC01990F76
:100C4000880B990B97FDDBCF4AE094CF4F925F92D0
:100C50006F927F928F929F92AF92BF92CF92DF92CC
:100C6000EF92FF920F931F93CF936B017C01742E31
:100C7000AC019B010E94960E62E272E0811125C0D8
:100C800046015701E894B7F82FEF3FEF4FE75FE7D2
:100C9000C501B4010E94960E81110BC02FEF3FEFEA
:100CA0004FE75FE7C501B40112D666E272E018169D
:100CB00064F02FEF3FEF4FE75FE4C701B6010E94FA
:100CC000920E1816A4F46AE272E087E992E0CF91DE
:100CD0001F910F91FF90EF90DF90CF90BF90AF905A
:100CE0009F908F907F906F905F904F903ACF2FEFB3
:100CF0003FEF4FE75FECC701B601E9D587FDE3CFD2
:100D000020E030E0A901C701B601E1D510E000E024
:100D100087FF09C06DE287E992E0ABDB8C01F7FA4F
:100D2000F094F7F8F094C0E060E070E080E09FE3BA
:100D30007C1639F020E030E040E251E45FD7CF5F2D
:100D4000F7CFA7019601F6D62B013C01BFD74B0187
:100D50005C014AE00FDF7C01E00EF11ECC2381F143
:100D6000C501B401B8D59B01AC01C301B201E1D604
:100D70004B015C016EE287E992E07BDBE80EF91E35
:100D8000C150F0F020E030E040E251E4C501B40190
:100D900003D62B013C019AD74B01B12CA12C4AE080
:100DA000C501B401E7DEE80EF91EC501B40193D513
:100DB0009B01AC01C301B201BCD64B015C01E0CF89
:100DC000C701CF911F910F91FF90EF90DF90CF90CF
:100DD000BF90AF909F908F907F906F905F904F905B
:100DE0000895CF93DF9397FF0CC009DFEC016EE20B
:100DF00072E087E992E0B5DE8C0F9D1FDF91CF9105
:100E000008954AE0B7DEF2CF0F931F93CF93DF939D
:100E1000EC01A7DE8C016EE272E0CE01A2DE800F53
:100E2000911FDF91CF911F910F9108959ACE1F923C
:100E30000F920FB60F9211240BB60F922F933F9380
:100E40004F935F936F937F938F939F93AF93BF93D2
:100E5000EF93FF9387E992E0EADAFF91EF91BF9178
:100E6000AF919F918F917F916F915F914F913F9142
:100E70002F910F900BBE0F900FBE0F901F901895E3
:100E80001F920F920FB60F9211240BB60F922F9351
:100E90008F939F93EF93FF93E091A702F091A802A5
:100EA0008081E091AD02F091AE0282FD1DC0908183
:100EB0008091B0028F5F8F732091B102821741F051
:100EC000E091B002F0E0E956FD4F958F8093B002BB
:100ED000FF91EF919F918F912F910F900BBE0F90EB
:100EE0000FBE0F901F9018958081F2CF1F920F9226
:100EF0000FB60F9211240BB60F922F933F934F937F
:100F00005F936F937F938F939F93AF93BF93EF9371
:100F1000FF9384E393E08BDAFF91EF91BF91AF9160
:100F20009F918F917F916F915F914F913F912F9101
:100F30000F900BBE0F900FBE0F901F9018951F9231
:100F40000F920FB60F9211240BB60F922F938F931F
:100F50009F93EF93FF93E0914403F09145038081C9
:100F6000E0914A03F0914B0382FD1DC09081809176
:100F70004D038F5F8F7320914E03821741F0E091F4
:100F80004D03F0E0EC5CFC4F958F80934D03FF9197
:100F9000EF919F918F912F910F900BBE0F900FBEED
:100FA0000F901F9018958081F2CF1F920F920FB66D
:100FB0000F9211242F933F938F939F93AF93BF93DF
:100FC0008091930290919402A0919502B091960223
:100FD00030917E0223E0230F2D3758F50196A11D95
:100FE000B11D20937E028093930290939402A0936C
:100FF0009502B093960280917F0290918002A09119
:101000008102B09182020196A11DB11D80937F02E1
:1010100090938002A0938102B0938202BF91AF911E
:101020009F918F913F912F910F900FBE0F901F9026
:10103000189526E8230F0296A11DB11DD2CF1F924D
:101040000F920FB60F9211240BB60F922F933F936E
:101050004F935F936F937F938F939F93AF93BF93C0
:10106000EF93FF93E0910E02F0910F021995FF911B
:10107000EF91BF91AF919F918F917F916F915F9110
:101080004F913F912F910F900BBE0F900FBE0F907D
:101090001F9018951F920F920FB60F9211240BB646
:1010A0000F922F933F934F935F936F937F938F9301
:1010B0009F93AF93BF93EF93FF93E0910C02F09156
:1010C0000D021995FF91EF91BF91AF919F918F9173
:1010D0007F916F915F914F913F912F910F900BBE38
:1010E0000F900FBE0F901F9018951F920F920FB682
:1010F0000F9211240BB60F922F933F934F935F9350
:101100006F937F938F939F93AF93BF93EF93FF93CF
:10111000E0910202F09103021995FF91EF91BF91C6
:10112000AF919F918F917F916F915F914F913F917F
:101130002F910F900BBE0F900FBE0F901F90189520
:101140001F920F920FB60F9211240BB60F922F938E
:101150003F934F935F936F937F938F939F93AF933F
:10116000BF93EF93FF93E0910002F0910102199574
:10117000FF91EF91BF91AF919F918F917F916F916F
:101180005F914F913F912F910F900BBE0F900FBE2B
:101190000F901F9018951F920F920FB60F92112467
:1011A0000BB60F922F933F934F935F936F937F9361
:1011B0008F939F93AF93BF93EF93FF93E0910A02B6
:1011C000F0910B021995FF91EF91BF91AF919F9113
:1011D0008F917F916F915F914F913F912F910F90E0
:1011E0000BBE0F900FBE0F901F9018951F920F927D
:1011F0000FB60F9211240BB60F922F933F934F937C
:101200005F936F937F938F939F93AF93BF93EF936E
:10121000FF93E0910802F09109021995FF91EF9177
:10122000BF91AF919F918F917F916F915F914F91FE
:101230003F912F910F900BBE0F900FBE0F901F90FC
:1012400018951F920F920FB60F9211240BB60F92A2
:101250002F933F934F935F936F937F938F939F93BE
:10126000AF93BF93EF93FF93E0910602F0910702D3
:101270001995FF91EF91BF91AF919F918F917F91C0
:101280006F915F914F913F912F910F900BBE0F90F7
:101290000FBE0F901F9018951F920F920FB60F92CE
:1012A00011240BB60F922F933F934F935F936F933D
:1012B0007F938F939F93AF93BF93EF93FF93E091AF
:1012C0000402F09105021995FF91EF91BF91AF9142
:1012D0009F918F917F916F915F914F913F912F914E
:1012E0000F900BBE0F900FBE0F901F901895E7E95F
:1012F000F2E01382128248EE53E060E070E0448333
:1013000055836683778384E192E09183808325ED22
:1013100030E03587248724ED30E03787268720EDBD
:1013200030E0318B208B21ED30E0338B228B22EDAE
:1013300030E0358B248B26ED30E0378B268B118EF9
:10134000128E138E148EE4E3F3E013821282448330
:101350005583668377839183808385EC90E09587BE
:10136000848784EC90E09787868780EC90E0918B6F
:10137000808B81EC90E0938B828B82EC90E0958B5C
:10138000848B86EC90E0978B868B118E128E138E59
:10139000148EE1EDF3E08AE3868385E1878386E0BE
:1013A000808781E085870895789484B5826084BDC4
:1013B00084B5816084BD85B5826085BD85B5816059
:1013C00085BD80916E00816080936E0010928100D7
:1013D0008091810082608093810080918100816092
:1013E0008093810080918000816080938000809153
:1013F000B10084608093B1008091B00081608093DF
:10140000B000809191008260809391008091910062
:101410008160809391008091900081608093900022
:101420008091A10082608093A1008091A1008160E1
:101430008093A1008091A00081608093A0008091A2
:10144000210182608093210180912101816080933C
:1014500021018091200181608093200180917A0098
:10146000846080937A0080917A00826080937A0011
:1014700080917A00816080937A0080917A00806800
:1014800080937A001092C10084E393E00E943501BA
:1014900087E992E00E94350160E08091D7033BD953
:1014A00061E08091D7030AD91092DA031092DB032E
:1014B0001092DC031092DD0382E0CBD9092E000CE0
:1014C000AA0BBB0B8093870290938802A09389029A
:1014D000B0938A0283E0BDD9092E000CAA0BBB0B86
:1014E0008093830290938402A0938502B093860236
:1014F00061E08CE010D961E08AE00DD96AE070E02B
:1015000080E090E075D960E08CE0D8D860E08AE0B7
:10151000D5D880E394E090930102809300028091FB
:101520006A008C7F816080936A00EC9A80E894E086
:10153000909303028093020280916A00837F84600B
:1015400080936A00ED9A42DA882341F08091D803B3
:101550008B3081F018F08551823060F161E372E0E8
:1015600084E393E063DC412C512C90EC692E9FE7DF
:10157000792E08C06091D10370E090E080E0ABD19B
:101580002B013C0123DA882349F08091D8038B306A
:1015900069F120F08551823008F498C061E372E06F
:1015A00084E393E043DCC12CD12C80ECE82E8FE760
:1015B000F82E24C06091D10370E090E080E08BD1E0
:1015C00020E030E040E853E4E7D16B017C0160911A
:1015D000D20370E090E080E080D1A7019601AAD20A
:1015E00020E030E040E251E409D3CACF6091D30358
:1015F00070E090E080E06FD16B017C018DE3BCD89E
:101600005C018CE3B9D88C018BE3B6D8EC0187E997
:1016100092E00E94F901019709F0EDC00E94BA0121
:10162000FC0197FD80C08D32910521F0C0970A978B
:1016300008F072C0C12CD12C7601C0E0E130F10578
:10164000D1F0ED32F10509F46CC0CF01C0970A97D3
:1016500090F4AAE0B0E0A701960152D26F01FF0F0B
:10166000EE08FF08C60ED71EE81EF91E80E3C81A52
:10167000D108E108F10887E992E00E9498010E94F0
:10168000BA01FC01C0970A97C8F2E130F105B1F246
:10169000CC2341F0F094E094D094C094C11CD11CB0
:1016A000E11CF11C83E0C816D10409F48EC00CF0D3
:1016B0003EC081E0C816D10409F455C082E0C816C6
:1016C000D10409F466C00E94A4023DCFC091D303A7
:1016D0006C2F6F7770E090E080E0FFD020E030E08A
:1016E00040E853E459D16B017C016091D40370E070
:1016F00090E080E0F2D0A70196011CD220E030E01B
:1017000040E251E47BD26B017C01C7FF77CFF7FA4F
:10171000F094F7F8F09472CF87E992E00E94980174
:101720007DCFC1E0A8CFC12CD12C7601BBCF84E006
:10173000C816D10409F454C085E0C816D10409F0D4
:10174000C2CF64E472E084E393E05EDB61E089E0B1
:1017500090E026D961E088E090E022D986E390E02D
:101760002AD961E027C06BE372E084E393E04CDBAD
:1017700061E089E090E014D960E088E090E010D961
:1017800086E390E018D961E087E090E009D960E055
:1017900015C06DE372E084E393E036DB61E089E03D
:1017A00090E0FED860E088E090E0FAD886E390E030
:1017B00002D960E087E090E0F3D861E086E090E055
:1017C000EFD888E390E0F7D87ECF6FE372E084E350
:1017D00093E01ADB60E089E090E0E2D861E0CDCFF1
:1017E00061E472E084E393E00FDB60E089E090E085
:1017F000D7D861E0D8CF61E08AE00E945E036EE254
:1018000072E087E992E0ADD966E472E087E992E0A0
:101810000DDB60918F027091900280919102909106
:101820009202DFDA6EE472E087E992E0FFDA60911B
:101830008B0270918C0280918D0290918E02D1DA90
:1018400066E572E087E992E0F1DAC501F7D96AE569
:1018500072E087E992E0EADAC801F0D96EE572E059
:1018600087E992E0E3DACE01E9D96EE272E087E936
:1018700092E077D963E672E087E992E0D7DA42E056
:10188000C301B201E3D967E672E087E992E0CEDAFC
:101890006BE672E087E992E0C9DA42E0C701B6017F
:1018A000D5D962E772E087E992E0AEDA62E370E0F0
:1018B00080E090E00E94F80360E08AE00E945E030E
:1018C00087E992E00E94980197FFFACFFCCE40D0C2
:1018D00008F481E00895E89409C097FB3EF49095E0
:1018E0008095709561957F4F8F4F9F4F9923A9F0F9
:1018F000F92F96E9BB279395F69587957795679588
:10190000B795F111F8CFFAF4BB0F11F460FF1BC0CB
:101910006F5F7F4F8F4F9F4F16C0882311F096E95E
:1019200011C0772321F09EE8872F762F05C066230C
:1019300071F096E8862F70E060E02AF09A95660FC5
:10194000771F881FDAF7880F9695879597F908957E
:10195000990F0008550FAA0BE0E8FEEF16161706C0
:10196000E807F907C0F012161306E407F50798F028
:10197000621B730B840B950B39F40A2661F0232B41
:10198000242B252B21F408950A2609F4A140A695BD
:101990008FEF811D811D08950BD078C069D028F08C
:1019A0006ED018F0952309F05AC05FC01124A2C070
:1019B0007ED0A0F3959FD1F3950F50E0551F629F05
:1019C000F001729FBB27F00DB11D639FAA27F00D98
:1019D000B11DAA1F649F6627B00DA11D661F829FBF
:1019E0002227B00DA11D621F739FB00DA11D621FA4
:1019F000839FA00D611D221F749F3327A00D611DC1
:101A0000231F849F600D211D822F762F6A2F1124A2
:101A10009F5750408AF0E1F088234AF0EE0FFF1FF5
:101A2000BB1F661F771F881F91505040A9F79E3F2C
:101A3000510570F014C05EC05F3FECF3983EDCF3DC
:101A4000869577956795B795F795E7959F5FC1F769
:101A5000FE2B880F911D9695879597F9089597F914
:101A60009F6780E870E060E008959FEF80EC089544
:101A700000240A941616170618060906089500246D
:101A80000A9412161306140605060895092E0394E7
:101A9000000C11F4882352F0BB0F40F4BF2B11F45B
:101AA00060FF04C06F5F7F4F8F4F9F4F089557FDBA
:101AB0009058440F551F59F05F3F71F04795880FBC
:101AC00097FB991F61F09F3F79F087950895121653
:101AD00013061406551FF2CF4695F1DF08C01616FF
:101AE00017061806991FF1CF8695710561050894B0
:101AF0000895E894BB2766277727CB0197F90895C7
:101B000009D0A59F900DB49F900DA49F800D911DAD
:101B100011240895A29FB001B39FC001A39F700D2F
:101B2000811D1124911DB29F700D811D1124911DE5
:101B300008955058BB27AA270ED0A8CF99DF30F0C0
:101B40009EDF20F031F49F3F11F41EF48ECF0EF48F
:101B5000E095E7FB84CFE92FAADF80F3BA1762078D
:101B600073078407950718F071F49EF5C2CF0EF441
:101B7000E0950B2EBA2FA02D0B01B90190010C019D
:101B8000CA01A0011124FF27591B99F0593F50F4B5
:101B9000503E68F11A16F040A22F232F342F44270D
:101BA000585FF3CF469537952795A795F040539505
:101BB000C9F77EF41F16BA0B620B730B840BBAF0D5
:101BC0009150A1F0FF0FBB1F661F771F881FC2F740
:101BD0000EC0BA0F621F731F841F48F48795779554
:101BE0006795B795F7959E3F08F0B3CF9395880F0B
:101BF00008F09927EE0F9795879508950CD046CF5A
:101C00003EDF40F035DF30F021F45F3F19F027CFA1
:101C1000511170CF2ACF4BDF98F39923C9F3552385
:101C2000B1F3951B550BBB27AA27621773078407CF
:101C300038F09F5F5F4F220F331F441FAA1FA9F385
:101C400033D00E2E3AF0E0E830D091505040E69577
:101C5000001CCAF729D0FE2F27D0660F771F881FD8
:101C6000BB1F261737074807AB07B0E809F0BB0BC7
:101C7000802DBF01FF2793585F4F2AF09E3F5105EB
:101C800068F0EDCE37CF5F3FECF3983EDCF38695FE
:101C900077956795B795F7959F5FC9F7880F911D61
:101CA0009695879597F90895E1E0660F771F881F4D
:101CB000BB1F621773078407BA0720F0621B730B00
:101CC000840BBA0BEE1F88F7E0950895F8DE88F0D4
:101CD0009F5790F0B92F9927B751A0F0D1F0660F18
:101CE000771F881F991F1AF0BA95C9F712C0B13033
:101CF00081F0FFDEB1E00895FCCE672F782F8827B2
:101D0000B85F39F0B93FCCF3869577956795B39571
:101D1000D9F73EF490958095709561957F4F8F4FE0
:101D20009F4F089515DE08F48FEF089511DE880B9C
:101D3000990B0895A1E21A2EAA1BBB1BFD010DC031
:101D4000AA1FBB1FEE1FFF1FA217B307E407F5076B
:101D500020F0A21BB30BE40BF50B661F771F881F47
:101D6000991F1A9469F760957095809590959B01DD
:101D7000AC01BD01CF010895EE0FFF1F881F8BBF7F
:0C1D80000790F691E02D1994F894FFCF25
:101D8C0028042804280428042804280428042804E7
:101D9C000000000039025C0189018502F9019801FB
:101DAC00AC016E616E00696E66006F7666000D0A9E
:101DBC000052656164206661696C00460052004CFB
:101DCC000042440053004C646174613A2000526438
:101DDC006174613A2000583A2000593A2000205A88
:101DEC003A2000483A20002025090054656D703ACD
:061DFC002000202A430034
:00000001FF
